{
  "contractName": "Moon",
  "abi": [
    {
      "inputs": [],
      "name": "GetOwnerName",
      "outputs": [
        {
          "internalType": "string",
          "name": "",
          "type": "string"
        }
      ],
      "stateMutability": "view",
      "type": "function",
      "constant": true
    },
    {
      "inputs": [
        {
          "internalType": "string",
          "name": "newOwner",
          "type": "string"
        }
      ],
      "name": "SetOwner",
      "outputs": [],
      "stateMutability": "payable",
      "type": "function",
      "payable": true
    }
  ],
  "bytecode": "0x60806040526040518060400160405280600381526020017f546f6d00000000000000000000000000000000000000000000000000000000008152506000908051906020019061004f92919061006d565b506601672e826f766760015534801561006757600080fd5b50610171565b8280546100799061013f565b90600052602060002090601f01602090048101928261009b57600085556100e2565b82601f106100b457805160ff19168380011785556100e2565b828001600101855582156100e2579182015b828111156100e15782518255916020019190600101906100c6565b5b5090506100ef91906100f3565b5090565b5b8082111561010c5760008160009055506001016100f4565b5090565b7f4e487b7100000000000000000000000000000000000000000000000000000000600052602260045260246000fd5b6000600282049050600182168061015757607f821691505b6020821081141561016b5761016a610110565b5b50919050565b610559806101806000396000f3fe6080604052600436106100295760003560e01c8063d02e73f21461002e578063efa541de14610059575b600080fd5b34801561003a57600080fd5b50610043610075565b60405161005091906102a2565b60405180910390f35b610073600480360381019061006e919061040d565b610107565b005b60606000805461008490610485565b80601f01602080910402602001604051908101604052809291908181526020018280546100b090610485565b80156100fd5780601f106100d2576101008083540402835291602001916100fd565b820191906000526020600020905b8154815290600101906020018083116100e057829003601f168201915b5050505050905090565b60015434101561014c576040517f08c379a000000000000000000000000000000000000000000000000000000000815260040161014390610503565b60405180910390fd5b8060009080519060200190610162929190610166565b5050565b82805461017290610485565b90600052602060002090601f01602090048101928261019457600085556101db565b82601f106101ad57805160ff19168380011785556101db565b828001600101855582156101db579182015b828111156101da5782518255916020019190600101906101bf565b5b5090506101e891906101ec565b5090565b5b808211156102055760008160009055506001016101ed565b5090565b600081519050919050565b600082825260208201905092915050565b60005b83811015610243578082015181840152602081019050610228565b83811115610252576000848401525b50505050565b6000601f19601f8301169050919050565b600061027482610209565b61027e8185610214565b935061028e818560208601610225565b61029781610258565b840191505092915050565b600060208201905081810360008301526102bc8184610269565b905092915050565b6000604051905090565b600080fd5b600080fd5b600080fd5b600080fd5b7f4e487b7100000000000000000000000000000000000000000000000000000000600052604160045260246000fd5b61031a82610258565b810181811067ffffffffffffffff82111715610339576103386102e2565b5b80604052505050565b600061034c6102c4565b90506103588282610311565b919050565b600067ffffffffffffffff821115610378576103776102e2565b5b61038182610258565b9050602081019050919050565b82818337600083830152505050565b60006103b06103ab8461035d565b610342565b9050828152602081018484840111156103cc576103cb6102dd565b5b6103d784828561038e565b509392505050565b600082601f8301126103f4576103f36102d8565b5b813561040484826020860161039d565b91505092915050565b600060208284031215610423576104226102ce565b5b600082013567ffffffffffffffff811115610441576104406102d3565b5b61044d848285016103df565b91505092915050565b7f4e487b7100000000000000000000000000000000000000000000000000000000600052602260045260246000fd5b6000600282049050600182168061049d57607f821691505b602082108114156104b1576104b0610456565b5b50919050565b7f4e6f7420456e6f75676820657468657200000000000000000000000000000000600082015250565b60006104ed601083610214565b91506104f8826104b7565b602082019050919050565b6000602082019050818103600083015261051c816104e0565b905091905056fea2646970667358221220954c04f515ab5b6b32aa75721d9f80d2cd335879e8a09107fc5c49f42483c9b164736f6c634300080b0033",
  "immutableReferences": {},
  "source": "// SPDX-License-Identifier: MIT\npragma solidity ^0.8.4;\n\ncontract Moon {\n\tstring currentOwnerName = \"Tom\";\n\tuint price = 394924431210087 wei;\n\t\n\tfunction GetOwnerName() public view returns(string memory){\n\t    return currentOwnerName;\n\t}\n\t\n\tfunction SetOwner(string memory newOwner) public payable{\n\t    require((msg.value >= price), \"Not Enough ether\");\n\t    currentOwnerName = newOwner;\n\t}\n}\n",
  "sourcePath": "/mnt/c/Users/Admin/Desktop/MoonProject/truffle/contracts/MoonContract.sol",
  "compiler": {
    "name": "solc",
    "version": "0.8.11+commit.d7f03943.Emscripten.clang"
  },
  "schemaVersion": "3.4.5",
  "updatedAt": "2022-03-12T02:48:28.014Z",
  "networkType": "ethereum",
  "devdoc": {
    "kind": "dev",
    "methods": {},
    "version": 1
  },
  "userdoc": {
    "kind": "user",
    "methods": {},
    "version": 1
  }
}